S00D000066696E616C2E737265630D
S11300000C942A000C9447000C9447000C9447006D
S11300100C9447000C9447000C9447000C94470040
S11300200C9447000C9447000C9447000C94470030
S11300300C9447000C9447000C9447000C94470020
S11300400C9447000C9447000C9447000C94470010
S11300500C94470011241FBECFE5D8E0DEBFCDBF0E
S113006010E0A0E6B0E0E0E9F5E002C005900D92F2
S1130070A636B107D9F720E0A6E6B0E001C01D928C
S1130080A636B207E1F70E949E010C94C6020C94B6
S11300900000CF93C82F40E062E081E00E945F023D
S11300A040E064E081E00E945F02C4FB442740F921
S11300B060E180E00E945F02C5FB442740F960E2F2
S11300C080E00E945F02C6FB442740F960E480E0C0
S11300D00E945F024C2F441F4427441F60E880E0C5
S11300E00E945F0240E068E081E00E945F028AE6CD
S11300F08A95F1F700C041E068E081E00E945F0268
S11301004C2F417060E180E00E945F02C1FB4427F4
S113011040F960E280E00E945F02C2FB442740F99C
S113012060E480E00E945F02C3FB442740F960E87A
S113013080E00E945F0240E068E081E00E945F028C
S11301408AE68A95F1F700C041E068E081E00E9408
S11301505F02CF910895CF93C82F41E062E081E020
S11301600E945F0240E064E081E00E945F02C4FB01
S1130170442740F960E180E00E945F02C5FB442708
S113018040F960E280E00E945F02C6FB442740F928
S113019060E480E00E945F024C2F441F4427441F08
S11301A060E880E00E945F0240E068E081E00E9435
S11301B05F0287EC90E00197F1F700C0000041E096
S11301C068E081E00E945F024C2F417060E180E0B2
S11301D00E945F02C1FB442740F960E280E00E9474
S11301E05F02C2FB442740F960E480E00E945F02A2
S11301F0C3FB442740F960E880E00E945F0240E0CE
S113020068E081E00E945F0287EC90E00197F1F7DB
S113021000C0000041E068E081E00E945F02CF91ED
S1130220089540E06EE081E00E94F60140E060EF56
S113023080E00E94F60141E068E081E00E945F02F4
S11302402FEF80E792E0215080409040E1F700C01A
S1130250000040E062E081E00E945F0240E064E070
S113026081E00E945F0240E060E180E00E945F0262
S113027041E060E280E00E945F0240E060E480E0F0
S11302800E945F0240E060E880E00E945F0240E07C
S113029068E081E00E945F0287EC90E00197F1F74B
S11302A000C0000041E068E081E00E945F028CE24F
S11302B00E9449008FE99FE00197F1F700C0000018
S11302C08FE00E9449008FE99FE00197F1F700C099
S11302D0000081E00E9449008FE39FE10197F1F75C
S11302E000C0000086E00E9449008FE99FE001976A
S11302F0F1F700C0000008950E94AB000895CF9369
S1130300DF93EC018881882331F021960E94AB00B1
S113031089918111FBCFDF91CF910895882319F042
S1130320813031F00895862F80680E944900089535
S113033080E4860F80680E9449000895CF93DF937C
S11303401F92CDB7DEB7198240E062E083E00E94DD
S1130350F60141E061E083E00E94F60140E060E1E3
S113036081E00E94F60140E060E281E00E94F60133
S113037041E060E481E00E94F60140E060E881E051
S11303800E94F60140E064E083E00E94F60187E603
S113039090E00E94B9020E94110164E080E00E9492
S11303A09B0260E080E00E948E0180E690E00E9463
S11303B07F01CE0101960E94C00260E081E00E94AC
S11303C08E0189810E947C0189810E94A802898111
S11303D0813631F441E064E083E00E945F02E9CFBA
S11303E040E064E083E00E945F02E3CF8130F9F0F3
S11303F030F08230A1F1833009F449C008954130CE
S113040041F018F0423051F008958AB3682B6ABB6A
S113041008958AB3609568236ABB08958AB3962FBA
S1130420909589238ABB8BB3682B6BBB08954130AD
S113043041F018F0423051F0089587B3682B67BB40
S1130440089587B36095682367BB089587B3962F93
S11304509095892387BB88B3682B68BB0895413086
S113046041F018F0423051F0089584B3682B64BB16
S113047008958AB3609568236ABB089584B3962F60
S11304809095892384BB85B3682B65BB089541305F
S113049041F018F0423051F0089582B3682B62BBEA
S11304A0089582B36095682362BB089582B3962F42
S11304B09095892382BB82B3682B62BB08958130F7
S11304C099F028F08230E9F0833041F10895442313
S11304D031F0413079F58BB3682B6BBB08958BB346
S11304E0609568236BBB0895442331F0413011F5C6
S11304F088B3682B68BB089588B36095682368BB8C
S11305000895442331F04130A9F485B3682B65BBC9
S1130510089585B36095682365BB0895442331F03D
S1130520413041F482B3682B62BB089582B3609575
S1130530682362BB089524E0829FC0011124806176
S11305408DB960FF709A8DB16695682B6DB9089569
S11305506E9A8FB977990AC080E197E225E02A95CF
S1130560F1F70000779902C00197C1F76E988FB137
S11305700895549A539A26E820BD89B990BD0895E8
S11305805F9B03C02CB1FC0120830895F894FFCF36
S109059068656C6C6F004D
S9030000FC
