S0180000736C6176655F7370695F6472697665722E737265635B
S11300000C942A000C943F000C943F000C943F0085
S11300100C943F000C943F000C943F000C943F0060
S11300200C943F000C943F000C943F000C943F0050
S11300300C943F000C943F000C943F000C943F0040
S11300400C943F000C943F000C943F000C943F0030
S11300500C943F0011241FBECFE5D8E0DEBFCDBF16
S113006010E0A0E6B0E0E0E6F5E002C005900D92F5
S1130070A636B107D9F70E9496010C94AE020C94EF
S11300800000CF93C82F40E062E081E00E945E024E
S113009040E064E081E00E945E02C4FB442740F932
S11300A060E180E00E945E02C5FB442740F960E203
S11300B080E00E945E02C6FB442740F960E480E0D1
S11300C00E945E024C2F441F4427441F60E880E0D6
S11300D00E945E0240E068E081E00E945E028AE6DF
S11300E08A95F1F700C041E068E081E00E945E0279
S11300F04C2F417060E180E00E945E02C1FB442706
S113010040F960E280E00E945E02C2FB442740F9AD
S113011060E480E00E945E02C3FB442740F960E88B
S113012080E00E945E0240E068E081E00E945E029E
S11301308AE68A95F1F700C041E068E081E00E9418
S11301405E02CF910895CF93C82F41E062E081E031
S11301500E945E0240E064E081E00E945E02C4FB13
S1130160442740F960E180E00E945E02C5FB442719
S113017040F960E280E00E945E02C6FB442740F939
S113018060E480E00E945E024C2F441F4427441F19
S113019060E880E00E945E0240E068E081E00E9446
S11301A05E0287EC90E00197F1F700C0000041E0A7
S11301B068E081E00E945E024C2F417060E180E0C3
S11301C00E945E02C1FB442740F960E280E00E9485
S11301D05E02C2FB442740F960E480E00E945E02B4
S11301E0C3FB442740F960E880E00E945E0240E0DF
S11301F068E081E00E945E0287EC90E00197F1F7ED
S113020000C0000041E068E081E00E945E02CF91FE
S1130210089540E06EE081E00E94F50140E060EF67
S113022080E00E94F50141E068E081E00E945E0206
S11302302FEF80E792E0215080409040E1F700C02A
S1130240000040E062E081E00E945E0240E064E081
S113025081E00E945E0240E060E180E00E945E0274
S113026041E060E280E00E945E0240E060E480E001
S11302700E945E0240E060E880E00E945E0240E08E
S113028068E081E00E945E0287EC90E00197F1F75C
S113029000C0000041E068E081E00E945E028CE260
S11302A00E9441008FE99FE00197F1F700C0000030
S11302B08FE00E9441008FE99FE00197F1F700C0B1
S11302C0000081E00E9441008FE39FE10197F1F774
S11302D000C0000086E00E9441008FE99FE0019782
S11302E0F1F700C0000008950E94A3000895CF9381
S11302F0DF93EC018881882331F021960E94A300CA
S113030089918111FBCFDF91CF910895882319F052
S1130310813031F00895862F80680E94410008954D
S113032080E4860F80680E944100089541E060E106
S113033081E00E945E0241E060E281E00E945E0290
S113034040E060E481E00E945E0241E060E881E018
S11303500E945E0265E080E00E949A020E94090108
S113036060E080E00E94860180E690E00E947701D0
S113037040E068E083E00E94F50140E064E082E050
S11303800E94F50140E068E083E00E945E0260E0C4
S113039081E00E9486010E94A802C82F0E94740175
S11303A0C13659F441E068E083E00E945E0240E017
S11303B064E082E00E945E02EACFC23659F440E073
S11303C068E083E00E945E0241E064E082E00E9413
S11303D05E02DDCF40E068E083E00E945E0240E020
S11303E064E082E00E945E02D2CF8130F9F030F006
S11303F08230A1F1833009F449C00895413041F0BD
S113040018F0423051F008958AB3682B6ABB0895FE
S11304108AB3609568236ABB08958AB3962F909532
S113042089238ABB8BB3682B6BBB0895413041F0A1
S113043018F0423051F0089587B3682B67BB0895D4
S113044087B36095682367BB089587B3962F90950B
S1130450892387BB88B3682B68BB0895413041F07A
S113046018F0423051F0089584B3682B64BB0895AA
S11304708AB3609568236ABB089584B3962F9095D8
S1130480892384BB85B3682B65BB0895413041F053
S113049018F0423051F0089582B3682B62BB08957E
S11304A082B36095682362BB089582B3962F9095BA
S11304B0892382BB82B3682B62BB0895813099F093
S11304C028F08230E9F0833041F10895442331F07B
S11304D0413079F58BB3682B6BBB08958BB3609572
S11304E068236BBB0895442331F0413011F588B380
S11304F0682B68BB089588B36095682368BB08952A
S1130500442331F04130A9F485B3682B65BB0895C9
S113051085B36095682365BB0895442331F0413069
S113052041F482B3682B62BB089582B3609568235B
S113053062BB08956E9A24E0829FC00111248064F6
S11305408DB960FF709A8DB16695682B6DB9089569
S11305506E9A779BFECF6E988FB10895F894FFCF73
S109056068656C6C6F007D
S9030000FC
